{
  "contractName": "AdditionContract",
  "abi": [
    {
      "inputs": [],
      "name": "sum",
      "outputs": [
        {
          "internalType": "uint256",
          "name": "",
          "type": "uint256"
        }
      ],
      "stateMutability": "view",
      "type": "function",
      "constant": true
    },
    {
      "inputs": [
        {
          "internalType": "uint256",
          "name": "num1",
          "type": "uint256"
        },
        {
          "internalType": "uint256",
          "name": "num2",
          "type": "uint256"
        }
      ],
      "name": "add",
      "outputs": [],
      "stateMutability": "nonpayable",
      "type": "function"
    },
    {
      "inputs": [],
      "name": "getSum",
      "outputs": [
        {
          "internalType": "uint256",
          "name": "",
          "type": "uint256"
        }
      ],
      "stateMutability": "view",
      "type": "function",
      "constant": true
    }
  ],
  "bytecode": "0x608060405234801561001057600080fd5b5061021a806100206000396000f3fe608060405234801561001057600080fd5b50600436106100415760003560e01c8063569c5f6d14610046578063771602f714610064578063853255cc14610080575b600080fd5b61004e61009e565b60405161005b9190610123565b60405180910390f35b61007e600480360381019061007991906100d8565b6100a7565b005b6100886100bd565b6040516100959190610123565b60405180910390f35b60008054905090565b80826100b3919061013e565b6000819055505050565b60005481565b6000813590506100d2816101cd565b92915050565b600080604083850312156100eb57600080fd5b60006100f9858286016100c3565b925050602061010a858286016100c3565b9150509250929050565b61011d81610194565b82525050565b60006020820190506101386000830184610114565b92915050565b600061014982610194565b915061015483610194565b9250827fffffffffffffffffffffffffffffffffffffffffffffffffffffffffffffffff038211156101895761018861019e565b5b828201905092915050565b6000819050919050565b7f4e487b7100000000000000000000000000000000000000000000000000000000600052601160045260246000fd5b6101d681610194565b81146101e157600080fd5b5056fea2646970667358221220d0afeb2663634476e4e8893c1ce869ed849c98b531baa6b5acc29ec614bf85fc64736f6c63430008000033",
  "immutableReferences": {},
  "source": "// SPDX-License-Identifier: MIT\r\npragma solidity ^0.8.0;\r\n\r\ncontract AdditionContract {\r\n    uint256 public sum;\r\n\r\n    // Function to add two numbers and store the result\r\n    function add(uint256 num1, uint256 num2) public {\r\n        sum = num1 + num2;\r\n    }\r\n\r\n    // Function to retrieve the stored sum\r\n    function getSum() public view returns (uint256) {\r\n        return sum;\r\n    }\r\n}\r\n",
  "sourcePath": "C:\\Users\\user\\OneDrive\\Desktop\\Blockchain\\Addnumber\\contracts\\add2num.sol",
  "compiler": {
    "name": "solc",
    "version": "0.8.0+commit.c7dfd78e.Emscripten.clang"
  },
  "schemaVersion": "3.4.16",
  "updatedAt": "2025-03-11T09:50:38.761Z",
  "networkType": "ethereum",
  "devdoc": {
    "kind": "dev",
    "methods": {},
    "version": 1
  },
  "userdoc": {
    "kind": "user",
    "methods": {},
    "version": 1
  }
}